{"abi":[{"type":"constructor","inputs":[{"name":"_usdc","type":"address","internalType":"address"},{"name":"_usdt","type":"address","internalType":"address"},{"name":"_adminWallet","type":"address","internalType":"address"},{"name":"_botWallet","type":"address","internalType":"address"}],"stateMutability":"nonpayable"},{"type":"function","name":"ADMIN_ROLE","inputs":[],"outputs":[{"name":"","type":"bytes32","internalType":"bytes32"}],"stateMutability":"view"},{"type":"function","name":"BOT_ROLE","inputs":[],"outputs":[{"name":"","type":"bytes32","internalType":"bytes32"}],"stateMutability":"view"},{"type":"function","name":"DEFAULT_ADMIN_ROLE","inputs":[],"outputs":[{"name":"","type":"bytes32","internalType":"bytes32"}],"stateMutability":"view"},{"type":"function","name":"UPGRADE_INTERFACE_VERSION","inputs":[],"outputs":[{"name":"","type":"string","internalType":"string"}],"stateMutability":"view"},{"type":"function","name":"adminWallet","inputs":[],"outputs":[{"name":"","type":"address","internalType":"address"}],"stateMutability":"view"},{"type":"function","name":"assignBotRole","inputs":[{"name":"bot","type":"address","internalType":"address"}],"outputs":[],"stateMutability":"nonpayable"},{"type":"function","name":"autoBalanceLiquidity","inputs":[],"outputs":[{"name":"transferredAmount","type":"uint256","internalType":"uint256"},{"name":"tokenTransferred","type":"address","internalType":"address"}],"stateMutability":"nonpayable"},{"type":"function","name":"botWallet","inputs":[],"outputs":[{"name":"","type":"address","internalType":"address"}],"stateMutability":"view"},{"type":"function","name":"checkLiquidityNeeds","inputs":[],"outputs":[{"name":"status","type":"string","internalType":"string"},{"name":"disparity","type":"uint256","internalType":"uint256"},{"name":"tokenToAdjust","type":"address","internalType":"address"}],"stateMutability":"view"},{"type":"function","name":"getRoleAdmin","inputs":[{"name":"role","type":"bytes32","internalType":"bytes32"}],"outputs":[{"name":"","type":"bytes32","internalType":"bytes32"}],"stateMutability":"view"},{"type":"function","name":"grantRole","inputs":[{"name":"role","type":"bytes32","internalType":"bytes32"},{"name":"account","type":"address","internalType":"address"}],"outputs":[],"stateMutability":"nonpayable"},{"type":"function","name":"hasRole","inputs":[{"name":"role","type":"bytes32","internalType":"bytes32"},{"name":"account","type":"address","internalType":"address"}],"outputs":[{"name":"","type":"bool","internalType":"bool"}],"stateMutability":"view"},{"type":"function","name":"proxiableUUID","inputs":[],"outputs":[{"name":"","type":"bytes32","internalType":"bytes32"}],"stateMutability":"view"},{"type":"function","name":"removeAndAddLiquidity","inputs":[{"name":"usdcAmount","type":"uint256","internalType":"uint256"},{"name":"usdtAmount","type":"uint256","internalType":"uint256"},{"name":"isFixed","type":"bool","internalType":"bool"}],"outputs":[],"stateMutability":"nonpayable"},{"type":"function","name":"renounceRole","inputs":[{"name":"role","type":"bytes32","internalType":"bytes32"},{"name":"callerConfirmation","type":"address","internalType":"address"}],"outputs":[],"stateMutability":"nonpayable"},{"type":"function","name":"revokeBotRole","inputs":[{"name":"bot","type":"address","internalType":"address"}],"outputs":[],"stateMutability":"nonpayable"},{"type":"function","name":"revokeRole","inputs":[{"name":"role","type":"bytes32","internalType":"bytes32"},{"name":"account","type":"address","internalType":"address"}],"outputs":[],"stateMutability":"nonpayable"},{"type":"function","name":"supportsInterface","inputs":[{"name":"interfaceId","type":"bytes4","internalType":"bytes4"}],"outputs":[{"name":"","type":"bool","internalType":"bool"}],"stateMutability":"view"},{"type":"function","name":"updateAdminWallet","inputs":[{"name":"newAdminWallet","type":"address","internalType":"address"}],"outputs":[],"stateMutability":"nonpayable"},{"type":"function","name":"updateBotWallet","inputs":[{"name":"newBotWallet","type":"address","internalType":"address"}],"outputs":[],"stateMutability":"nonpayable"},{"type":"function","name":"upgradeToAndCall","inputs":[{"name":"newImplementation","type":"address","internalType":"address"},{"name":"data","type":"bytes","internalType":"bytes"}],"outputs":[],"stateMutability":"payable"},{"type":"function","name":"usdc","inputs":[],"outputs":[{"name":"","type":"address","internalType":"address"}],"stateMutability":"view"},{"type":"function","name":"usdt","inputs":[],"outputs":[{"name":"","type":"address","internalType":"address"}],"stateMutability":"view"},{"type":"function","name":"withdrawAllLiquidity","inputs":[],"outputs":[],"stateMutability":"nonpayable"},{"type":"event","name":"LiquidityAdded","inputs":[{"name":"transferredAmount","type":"uint256","indexed":false,"internalType":"uint256"},{"name":"tokentoadjust","type":"address","indexed":false,"internalType":"address"}],"anonymous":false},{"type":"event","name":"LiquidityRemoved","inputs":[{"name":"to","type":"address","indexed":true,"internalType":"address"},{"name":"usdcAmount","type":"uint256","indexed":false,"internalType":"uint256"},{"name":"usdtAmount","type":"uint256","indexed":false,"internalType":"uint256"}],"anonymous":false},{"type":"event","name":"RoleAdminChanged","inputs":[{"name":"role","type":"bytes32","indexed":true,"internalType":"bytes32"},{"name":"previousAdminRole","type":"bytes32","indexed":true,"internalType":"bytes32"},{"name":"newAdminRole","type":"bytes32","indexed":true,"internalType":"bytes32"}],"anonymous":false},{"type":"event","name":"RoleGranted","inputs":[{"name":"role","type":"bytes32","indexed":true,"internalType":"bytes32"},{"name":"account","type":"address","indexed":true,"internalType":"address"},{"name":"sender","type":"address","indexed":true,"internalType":"address"}],"anonymous":false},{"type":"event","name":"RoleRevoked","inputs":[{"name":"role","type":"bytes32","indexed":true,"internalType":"bytes32"},{"name":"account","type":"address","indexed":true,"internalType":"address"},{"name":"sender","type":"address","indexed":true,"internalType":"address"}],"anonymous":false},{"type":"event","name":"Upgraded","inputs":[{"name":"implementation","type":"address","indexed":true,"internalType":"address"}],"anonymous":false},{"type":"event","name":"WalletUpdated","inputs":[{"name":"walletType","type":"string","indexed":false,"internalType":"string"},{"name":"oldWallet","type":"address","indexed":false,"internalType":"address"},{"name":"newWallet","type":"address","indexed":false,"internalType":"address"}],"anonymous":false},{"type":"error","name":"AccessControlBadConfirmation","inputs":[]},{"type":"error","name":"AccessControlUnauthorizedAccount","inputs":[{"name":"account","type":"address","internalType":"address"},{"name":"neededRole","type":"bytes32","internalType":"bytes32"}]},{"type":"error","name":"AddressEmptyCode","inputs":[{"name":"target","type":"address","internalType":"address"}]},{"type":"error","name":"ERC1967InvalidImplementation","inputs":[{"name":"implementation","type":"address","internalType":"address"}]},{"type":"error","name":"ERC1967NonPayable","inputs":[]},{"type":"error","name":"FailedCall","inputs":[]},{"type":"error","name":"UUPSUnauthorizedCallContext","inputs":[]},{"type":"error","name":"UUPSUnsupportedProxiableUUID","inputs":[{"name":"slot","type":"bytes32","internalType":"bytes32"}]}],"bytecode":{"object":"0x60a060405230608052348015610013575f5ffd5b50604051611f6c380380611f6c83398101604081905261003291610373565b6001600160a01b03841661008d5760405162461bcd60e51b815260206004820152601860248201527f446972656363696f6e2055534443206e6f2076616c696461000000000000000060448201526064015b60405180910390fd5b6001600160a01b0383166100e35760405162461bcd60e51b815260206004820152601860248201527f446972656363696f6e2055534454206e6f2076616c69646100000000000000006044820152606401610084565b6001600160a01b0382166101395760405162461bcd60e51b815260206004820152601960248201527f446972656363696f6e2041646d696e206e6f2076616c696461000000000000006044820152606401610084565b6001600160a01b03811661018f5760405162461bcd60e51b815260206004820152601760248201527f446972656363696f6e20426f74206e6f2076616c6964610000000000000000006044820152606401610084565b600380546001600160a01b038087166001600160a01b031992831617909255600480548684169083161790556001805485841690831617905560028054928416929091169190911790556101f05f516020611f2c5f395f51905f525f610265565b6102145f516020611f4c5f395f51905f525f516020611f2c5f395f51905f52610265565b61021e5f336102af565b506102365f516020611f2c5f395f51905f52336102af565b5060025461025b905f516020611f4c5f395f51905f52906001600160a01b03166102af565b50505050506103c4565b5f82815260208190526040808220600101805490849055905190918391839186917fbd79b86ffe0ab8e8776151514217cd7cacd52c909f66475c3af44e129f0b00ff9190a4505050565b5f828152602081815260408083206001600160a01b038516845290915281205460ff1661034f575f838152602081815260408083206001600160a01b03861684529091529020805460ff191660011790556103073390565b6001600160a01b0316826001600160a01b0316847f2f8788117e7eff1d82e926ec794901d17c78024a50270940304540a733656f0d60405160405180910390a4506001610352565b505f5b92915050565b80516001600160a01b038116811461036e575f5ffd5b919050565b5f5f5f5f60808587031215610386575f5ffd5b61038f85610358565b935061039d60208601610358565b92506103ab60408601610358565b91506103b960608601610358565b905092959194509250565b608051611b426103ea5f395f818161145b0152818161148401526115d40152611b425ff3fe608060405260043610610147575f3560e01c806352d1902d116100b3578063a217fddf1161006d578063a217fddf146103b6578063a2468f07146103c9578063ad3cb1cc146103e8578063b150377414610425578063d547741f14610445578063e59f707514610464575f5ffd5b806352d1902d146103065780635ad9e68c1461031a5780635eec0870146103395780636812fdbd1461035857806375b238fc1461037757806391d1485414610397575f5ffd5b806336b19cd71161010457806336b19cd7146102515780633c2ce869146102705780633e413bee146102845780633f129a98146102a3578063424b0c49146102c25780634f1ef286146102f3575f5ffd5b806301ffc9a71461014b578063248a9ca31461017f5780632d03f900146101bb5780632f2ff15d146101f25780632f48ab7d1461021357806336568abe14610232575b5f5ffd5b348015610156575f5ffd5b5061016a61016536600461181c565b610487565b60405190151581526020015b60405180910390f35b34801561018a575f5ffd5b506101ad610199366004611843565b5f9081526020819052604090206001015490565b604051908152602001610176565b3480156101c6575f5ffd5b506002546101da906001600160a01b031681565b6040516001600160a01b039091168152602001610176565b3480156101fd575f5ffd5b5061021161020c366004611875565b6104bd565b005b34801561021e575f5ffd5b506004546101da906001600160a01b031681565b34801561023d575f5ffd5b5061021161024c366004611875565b6104e7565b34801561025c575f5ffd5b506001546101da906001600160a01b031681565b34801561027b575f5ffd5b5061021161051f565b34801561028f575f5ffd5b506003546101da906001600160a01b031681565b3480156102ae575f5ffd5b506102116102bd36600461189f565b61075d565b3480156102cd575f5ffd5b506102d661086e565b604080519283526001600160a01b03909116602083015201610176565b6102116103013660046118cc565b610b65565b348015610311575f5ffd5b506101ad610b84565b348015610325575f5ffd5b5061021161033436600461189f565b610b9f565b348015610344575f5ffd5b5061021161035336600461189f565b610bcd565b348015610363575f5ffd5b5061021161037236600461199d565b610cce565b348015610382575f5ffd5b506101ad5f516020611acd5f395f51905f5281565b3480156103a2575f5ffd5b5061016a6103b1366004611875565b611127565b3480156103c1575f5ffd5b506101ad5f81565b3480156103d4575f5ffd5b506102116103e336600461189f565b61114f565b3480156103f3575f5ffd5b50610418604051806040016040528060058152602001640352e302e360dc1b81525081565b6040516101769190611a01565b348015610430575f5ffd5b506101ad5f516020611aed5f395f51905f5281565b348015610450575f5ffd5b5061021161045f366004611875565b611179565b34801561046f575f5ffd5b5061047861119d565b60405161017693929190611a13565b5f6001600160e01b03198216637965db0b60e01b14806104b757506301ffc9a760e01b6001600160e01b03198316145b92915050565b5f828152602081905260409020600101546104d78161134b565b6104e18383611358565b50505050565b6001600160a01b03811633146105105760405163334bd91960e11b815260040160405180910390fd5b61051a82826113e7565b505050565b5f516020611acd5f395f51905f526105368161134b565b6003546040516370a0823160e01b81523060048201525f916001600160a01b0316906370a0823190602401602060405180830381865afa15801561057c573d5f5f3e3d5ffd5b505050506040513d601f19601f820116820180604052508101906105a09190611a45565b600480546040516370a0823160e01b815230928101929092529192505f916001600160a01b0316906370a0823190602401602060405180830381865afa1580156105ec573d5f5f3e3d5ffd5b505050506040513d601f19601f820116820180604052508101906106109190611a45565b905081156106905760035460015460405163a9059cbb60e01b81526001600160a01b0391821660048201526024810185905291169063a9059cbb906044016020604051808303815f875af115801561066a573d5f5f3e3d5ffd5b505050506040513d601f19601f8201168201806040525081019061068e9190611a5c565b505b8015610710576004805460015460405163a9059cbb60e01b81526001600160a01b039182169381019390935260248301849052169063a9059cbb906044016020604051808303815f875af11580156106ea573d5f5f3e3d5ffd5b505050506040513d601f19601f8201168201806040525081019061070e9190611a5c565b505b60015460408051848152602081018490526001600160a01b03909216917f96cd817c6329656790ef8fba7675405193677d39619571282f5e21f3a98cd059910160405180910390a2505050565b5f516020611acd5f395f51905f526107748161134b565b6001600160a01b0382166107b75760405162461bcd60e51b815260206004820152600560248201526432b93937b960d91b60448201526064015b60405180910390fd5b60025460408051606080825260039082015262109bdd60ea1b60808201526001600160a01b03928316602082015291841682820152517fd8e98bff5ae8522235ef48daecff7488b367200bea03a4e8cb4bc98108c6a4929181900360a00190a1600280546001600160a01b0319166001600160a01b0384161790556108495f516020611aed5f395f51905f5283611358565b5060025461051a905f516020611aed5f395f51905f52906001600160a01b03166113e7565b5f5f5f516020611aed5f395f51905f526108878161134b565b5f5f5f61089261119d565b9250925092505f82116108e25760405162461bcd60e51b815260206004820152601860248201527742616c616e63657320796120657175696c69627261646f7360401b60448201526064016107ae565b6003546001600160a01b0390811690821603610a00576003546040516370a0823160e01b81523060048201526001600160a01b03909116906370a0823190602401602060405180830381865afa15801561093e573d5f5f3e3d5ffd5b505050506040513d601f19601f820116820180604052508101906109629190611a45565b82111583906109845760405162461bcd60e51b81526004016107ae9190611a01565b5060035460405163a9059cbb60e01b8152336004820152602481018490526001600160a01b039091169063a9059cbb906044016020604051808303815f875af11580156109d3573d5f5f3e3d5ffd5b505050506040513d601f19601f820116820180604052508101906109f79190611a5c565b50819550610b1c565b6004546001600160a01b0390811690821603610b1c57600480546040516370a0823160e01b815230928101929092526001600160a01b0316906370a0823190602401602060405180830381865afa158015610a5d573d5f5f3e3d5ffd5b505050506040513d601f19601f82011682018060405250810190610a819190611a45565b8211158390610aa35760405162461bcd60e51b81526004016107ae9190611a01565b506004805460405163a9059cbb60e01b81523392810192909252602482018490526001600160a01b03169063a9059cbb906044016020604051808303815f875af1158015610af3573d5f5f3e3d5ffd5b505050506040513d601f19601f82011682018060405250810190610b179190611a5c565b508195505b604080518781526001600160a01b03831660208201527f71e08e60a6135c7d231e95d525019e0473070c375b5449a8a4aa5d50040a947c910160405180910390a1505050509091565b610b6d611450565b610b76826114f6565b610b80828261150d565b5050565b5f610b8d6115c9565b505f516020611aad5f395f51905f5290565b5f516020611acd5f395f51905f52610bb68161134b565b610b805f516020611aed5f395f51905f52836104bd565b5f516020611acd5f395f51905f52610be48161134b565b6001600160a01b038216610c225760405162461bcd60e51b815260206004820152600560248201526432b93937b960d91b60448201526064016107ae565b6001546040805160608082526005908201526420b236b4b760d91b60808201526001600160a01b03928316602082015291841682820152517fd8e98bff5ae8522235ef48daecff7488b367200bea03a4e8cb4bc98108c6a4929181900360a00190a1600180546001600160a01b0319166001600160a01b038416179055610cb65f516020611acd5f395f51905f5283611358565b5061051a5f516020611acd5f395f51905f52336113e7565b5f516020611aed5f395f51905f52610ce58161134b565b6003546040516370a0823160e01b81523060048201525f916001600160a01b0316906370a0823190602401602060405180830381865afa158015610d2b573d5f5f3e3d5ffd5b505050506040513d601f19601f82011682018060405250810190610d4f9190611a45565b600480546040516370a0823160e01b815230928101929092529192505f916001600160a01b0316906370a0823190602401602060405180830381865afa158015610d9b573d5f5f3e3d5ffd5b505050506040513d601f19601f82011682018060405250810190610dbf9190611a45565b90505f5f5f610dcc61119d565b9250925092508615610f195782858a1115610dfa5760405162461bcd60e51b81526004016107ae9190611a01565b508284891115610e1d5760405162461bcd60e51b81526004016107ae9190611a01565b508815610e985760035460405163a9059cbb60e01b8152336004820152602481018b90526001600160a01b039091169063a9059cbb906044016020604051808303815f875af1158015610e72573d5f5f3e3d5ffd5b505050506040513d601f19601f82011682018060405250810190610e969190611a5c565b505b8715610f14576004805460405163a9059cbb60e01b81523392810192909252602482018a90526001600160a01b03169063a9059cbb906044015b6020604051808303815f875af1158015610eee573d5f5f3e3d5ffd5b505050506040513d601f19601f82011682018060405250810190610f129190611a5c565b505b6110db565b5f8211610f635760405162461bcd60e51b815260206004820152601860248201527742616c616e63657320796120657175696c69627261646f7360401b60448201526064016107ae565b6003546001600160a01b03908116908216036110005784821115610fc95760405162461bcd60e51b815260206004820152601e60248201527f5553444320696e737566696369656e7465207061726120616a7573746172000060448201526064016107ae565b60035460405163a9059cbb60e01b8152336004820152602481018490526001600160a01b039091169063a9059cbb90604401610ed2565b6004546001600160a01b03908116908216036110db57838211156110665760405162461bcd60e51b815260206004820152601e60248201527f5553445420696e737566696369656e7465207061726120616a7573746172000060448201526064016107ae565b6004805460405163a9059cbb60e01b81523392810192909252602482018490526001600160a01b03169063a9059cbb906044016020604051808303815f875af11580156110b5573d5f5f3e3d5ffd5b505050506040513d601f19601f820116820180604052508101906110d99190611a5c565b505b604080518381526001600160a01b03831660208201527f71e08e60a6135c7d231e95d525019e0473070c375b5449a8a4aa5d50040a947c910160405180910390a1505050505050505050565b5f918252602082815260408084206001600160a01b0393909316845291905290205460ff1690565b5f516020611acd5f395f51905f526111668161134b565b610b805f516020611aed5f395f51905f52835b5f828152602081905260409020600101546111938161134b565b6104e183836113e7565b6003546040516370a0823160e01b81523060048201526060915f91829182916001600160a01b03909116906370a0823190602401602060405180830381865afa1580156111ec573d5f5f3e3d5ffd5b505050506040513d601f19601f820116820180604052508101906112109190611a45565b600480546040516370a0823160e01b815230928101929092529192505f916001600160a01b0316906370a0823190602401602060405180830381865afa15801561125c573d5f5f3e3d5ffd5b505050506040513d601f19601f820116820180604052508101906112809190611a45565b9050808211156112ce576112948183611a77565b60045460408051808201909152600b81526a1554d115081b995959195960aa1b602082015296509094506001600160a01b03169250611344565b8181111561131a576112e08282611a77565b60035460408051808201909152600b81526a1554d110c81b995959195960aa1b602082015296509094506001600160a01b03169250611344565b5f93505f92506040518060400160405280600881526020016710985b185b98d95960c21b81525094505b5050909192565b6113558133611612565b50565b5f6113638383611127565b6113e0575f838152602081815260408083206001600160a01b03861684529091529020805460ff191660011790556113983390565b6001600160a01b0316826001600160a01b0316847f2f8788117e7eff1d82e926ec794901d17c78024a50270940304540a733656f0d60405160405180910390a45060016104b7565b505f6104b7565b5f6113f28383611127565b156113e0575f838152602081815260408083206001600160a01b0386168085529252808320805460ff1916905551339286917ff6391f5c32d9c69d2a47ea670b442974b53935d1edc7fd64eb21e047a839171b9190a45060016104b7565b306001600160a01b037f00000000000000000000000000000000000000000000000000000000000000001614806114d657507f00000000000000000000000000000000000000000000000000000000000000006001600160a01b03166114ca5f516020611aad5f395f51905f52546001600160a01b031690565b6001600160a01b031614155b156114f45760405163703e46dd60e11b815260040160405180910390fd5b565b5f516020611acd5f395f51905f52610b808161134b565b816001600160a01b03166352d1902d6040518163ffffffff1660e01b8152600401602060405180830381865afa925050508015611567575060408051601f3d908101601f1916820190925261156491810190611a45565b60015b61158f57604051634c9c8ce360e01b81526001600160a01b03831660048201526024016107ae565b5f516020611aad5f395f51905f5281146115bf57604051632a87526960e21b8152600481018290526024016107ae565b61051a838361164b565b306001600160a01b037f000000000000000000000000000000000000000000000000000000000000000016146114f45760405163703e46dd60e11b815260040160405180910390fd5b61161c8282611127565b610b805760405163e2517d3f60e01b81526001600160a01b0382166004820152602481018390526044016107ae565b611654826116a0565b6040516001600160a01b038316907fbc7cd75a20ee27fd9adebab32041f755214dbc6bffa90cc0225b39da2e5c2d3b905f90a28051156116985761051a8282611703565b610b80611775565b806001600160a01b03163b5f036116d557604051634c9c8ce360e01b81526001600160a01b03821660048201526024016107ae565b5f516020611aad5f395f51905f5280546001600160a01b0319166001600160a01b0392909216919091179055565b60605f5f846001600160a01b03168460405161171f9190611a96565b5f60405180830381855af49150503d805f8114611757576040519150601f19603f3d011682016040523d82523d5f602084013e61175c565b606091505b509150915061176c858383611794565b95945050505050565b34156114f45760405163b398979f60e01b815260040160405180910390fd5b6060826117a9576117a4826117f3565b6117ec565b81511580156117c057506001600160a01b0384163b155b156117e957604051639996b31560e01b81526001600160a01b03851660048201526024016107ae565b50805b9392505050565b8051156118035780518082602001fd5b60405163d6bda27560e01b815260040160405180910390fd5b5f6020828403121561182c575f5ffd5b81356001600160e01b0319811681146117ec575f5ffd5b5f60208284031215611853575f5ffd5b5035919050565b80356001600160a01b0381168114611870575f5ffd5b919050565b5f5f60408385031215611886575f5ffd5b823591506118966020840161185a565b90509250929050565b5f602082840312156118af575f5ffd5b6117ec8261185a565b634e487b7160e01b5f52604160045260245ffd5b5f5f604083850312156118dd575f5ffd5b6118e68361185a565b9150602083013567ffffffffffffffff811115611901575f5ffd5b8301601f81018513611911575f5ffd5b803567ffffffffffffffff81111561192b5761192b6118b8565b604051601f8201601f19908116603f0116810167ffffffffffffffff8111828210171561195a5761195a6118b8565b604052818152828201602001871015611971575f5ffd5b816020840160208301375f602083830101528093505050509250929050565b8015158114611355575f5ffd5b5f5f5f606084860312156119af575f5ffd5b833592506020840135915060408401356119c881611990565b809150509250925092565b5f81518084528060208401602086015e5f602082860101526020601f19601f83011685010191505092915050565b602081525f6117ec60208301846119d3565b606081525f611a2560608301866119d3565b6020830194909452506001600160a01b0391909116604090910152919050565b5f60208284031215611a55575f5ffd5b5051919050565b5f60208284031215611a6c575f5ffd5b81516117ec81611990565b818103818111156104b757634e487b7160e01b5f52601160045260245ffd5b5f82518060208501845e5f92019182525091905056fe360894a13ba1a3210667c828492db98dca3e2076cc3735a920a3ca505d382bbca49807205ce4d355092ef5a8a18f56e8913cf4a201fbe287825b095693c217756d5c9827c1f410bbb61d3b2a0a34b6b30492d9a1fd38588edca7ec4562ab9c9ba2646970667358221220f5261cbf35da56362a81d537674a0bb9d6ee1a710cd6b3750aa8e8e5cd721c4864736f6c634300081c0033a49807205ce4d355092ef5a8a18f56e8913cf4a201fbe287825b095693c217756d5c9827c1f410bbb61d3b2a0a34b6b30492d9a1fd38588edca7ec4562ab9c9b","linkReferences":{}},"methodIdentifiers":{"ADMIN_ROLE()":"75b238fc","BOT_ROLE()":"b1503774","DEFAULT_ADMIN_ROLE()":"a217fddf","UPGRADE_INTERFACE_VERSION()":"ad3cb1cc","adminWallet()":"36b19cd7","assignBotRole(address)":"5ad9e68c","autoBalanceLiquidity()":"424b0c49","botWallet()":"2d03f900","checkLiquidityNeeds()":"e59f7075","getRoleAdmin(bytes32)":"248a9ca3","grantRole(bytes32,address)":"2f2ff15d","hasRole(bytes32,address)":"91d14854","proxiableUUID()":"52d1902d","removeAndAddLiquidity(uint256,uint256,bool)":"6812fdbd","renounceRole(bytes32,address)":"36568abe","revokeBotRole(address)":"a2468f07","revokeRole(bytes32,address)":"d547741f","supportsInterface(bytes4)":"01ffc9a7","updateAdminWallet(address)":"5eec0870","updateBotWallet(address)":"3f129a98","upgradeToAndCall(address,bytes)":"4f1ef286","usdc()":"3e413bee","usdt()":"2f48ab7d","withdrawAllLiquidity()":"3c2ce869"},"id":1}